:100000006F00704800000000500700005207000019
:1000100000000000000000000000000000000000E0
:1000200000000000000000000000000000000000D0
:10003000840C000000000000840C000000000000A0
:10004000840C0000840C0000840C0000840C000070
:10005000840C0000840C0000280B0000840C0000BD
:10006000840C0000840C0000840C0000840C000050
:10007000840C0000840C0000840C0000840C000040
:10008000840C0000840C0000840C0000840C000030
:10009000840C0000840C0000840C0000840C000020
:0800A000840C000000000000C8
:1000A800511126C022C206C4828282441244A24050
:1000B80031018280634E050263C305042E86AA853A
:1000C8007D5515C285466378B6006356C00006069E
:1000D8008606E36CB6FE014563E4C500918D558D37
:1000E80085820582F5FA82808682C93F2E858282C2
:1000F8003305A0406347B000B305B040C1B7B305AE
:10010800B0408682653F3305A0408282868263C7FD
:100118000500634905005D372E858282B305B0402E
:10012800E35B05FE3305A040513F3305B0408282B2
:1001380000002A8311C62300B3007D16050365FE5F
:1001480082800D456F109005EFF29FF5A145371598
:100158000140EF10A00C854537150140EF10000C49
:10016800CD37A14537150140EF10800BD93F8545A4
:1001780037150140EF10C00AE93705BFEFF25FF20B
:10018800A14537150140EF10A009854537150140F5
:10019800EF10C0087D37A14537150140EF10000862
:1001A80029B7EFF2FFEFA14537150140EF1000071F
:1001B800493F854537150140EF10400659378545B9
:1001C80037150140EF10C005AD3FC5B5EFF25FED43
:1001D8002A84A14493178401E187A145371501407A
:1001E80063D90702EF108003A93F85453715014001
:1001F800EF10C002FD14B1378545371501400604DC
:1002080093F4F40FEF10C0011374F40F1D3FF9F0CD
:1002180069BDEF10E000C9BFEFF29FE8AE842A8401
:100228002537130580075D37AD3F1305000491E0BE
:100238000145693FBD372285513FA5378137B5B59F
:10024800EFF21FE6B704002061110144938484246F
:10025800130504FB81451375F50F7D3F814509455D
:10026800653F814541454D3FC53513058007B93F79
:100278000D3F13050004993F2D373307940081473C
:1002880008233EC23AC09937293F9247024793064E
:100298000008850793F7F70F2107E393D7FEF93D89
:1002A8000504A147E316F4FA210101B53706002039
:1002B800014713068624930500082145B306C700A5
:1002C800814785072380060093F7F70FA106E39A75
:1002D800B7FE0507E314A7FEA5B793F77500054712
:1002E8003317F700B7070020938687240E058D8102
:1002F800AA96AE9694221377F70F9387872411C690
:10030800D98EAA97AE9794A382801347F7FFF98EE8
:10031800CDBFEFF2FFD80111B2873AC021462A8338
:10032800AE821947638FC60013F7760013D63600DE
:100338003337E000329713D616003307C702137716
:10034800F70F81171306400293F7F70FB387C70219
:100358000D66130606A8B2973384E700638A870000
:10036800024761461A85133717003AC26386C600EA
:10037800056125BBA6821A8594239384820093F491
:10038800F40F968513F6160016CE1ACC36CA3EC858
:1003980005CE02462EC62AC489372245B245C24731
:1003A800D2466243F242850593F5F50F8582E39BB9
:1003B800B4FC05051375F50F930645FF8507639093
:1003C8006602E39987FA6DB712462EC62AC43137FA
:1003D800F2426243D246C247B2452245E9B7E39D9D
:1003E80087F879B7EFF2DFCB41112A84B28493D72B
:1003F800160090201303E005130506FE1375F50F8C
:100408006374A300410155B122853EC63AC436C281
:100418002EC001379246214682452247B24763974C
:10042800C60019041374F40F8504E1B73E94DDBFC8
:10043800EFF21FC731113EC4930787FF93B7170028
:10044800BA8486070583BA97FD162AC02EC232C819
:100458003EC613F4F60F9307F00F6311F40451012D
:10046800A9B1B385D502FD1793F7F70FE39BE7FE14
:100478004245A931A9458D3905E92247A6861306C3
:100488000003924502457D141374F40F5935024751
:10049800B247BA9793F7F70F3EC075BFA287854555
:1004A8001307F00FA946C1B7130505032247A6860F
:1004B8001376F50FF9B7EFF2BFBE054419C9014429
:1004C800A945AA84E53E0504A5471374F40FE3E99A
:1004D80097FE2285D9BEEFF2BFBC11112EC0AA84A7
:1004E80093050000328532C436843AC2EF10504476
:1004F8008D67224683A5C77D634305063285EF10C5
:10050800B04CEF202032A9452AC64D3E2AC47914A2
:100518005D37098C1374F40FAA8751E026843E8353
:100528006311030C3147B387E70282451247E1465E
:100538001306E002BE9493F4F40F2685D93B3245A6
:10054800A945B10455361247824513060503E1460D
:100558001376F60F13F5F40F6D3B7101B9B6370535
:100568000080318DEF105046EF20C02BA9452AC6D8
:10057800B1362AC475148137098C1374F40FAA870D
:10058800854319EC124782452685E1461306D002B9
:100598003EC8B104BD3BC24793F4F40F41B7814351
:1005A8000143B1423305530212478245E14613061F
:1005B80000021ECC3ECA1AC826951375F50F913B4A
:1005C8004243D247E24305031373F30FB142E31AE0
:1005D80064FC3304540226949374F40FE38003F408
:1005E80055B77D131373F30F1A8785459306F00FDC
:1005F80029467D171377F70F6317D70222453ECA9E
:100608001AC86D3CA945CD34124782451306050327
:10061800E14622851376F60FED393104D24742437D
:100628001374F40FF5BDB385C502E1B7EFF25FA708
:1006380051111305800CEF1040391305007DEF10A0
:10064800C03885454145EF10400D0544D1448A85A1
:1006580037150140608026C422C2EF00D034A1477C
:100668008A85371501407C8026C422C2EF00B0334A
:10067800A54537150140EF00703A81451305E00A9A
:10068800613E81450945493E81454145713681456F
:1006980013050004513681451305000BB53E81450D
:1006A80013051008953E81451305F00CB5368145B4
:1006B8001305100A953681451305600AB13E814538
:1006C8001305800A913E81451305F003B136814533
:1006D8001305D00A913681451305B008353E81458A
:1006E80013053003153E81451305800C35368145C9
:1006F8001305300D153681450145393E81451305F1
:10070800500D193E814513050008393681451305FA
:10071800900D193681457D45013681451305A00D9B
:10072800E53C81454945CD3C81451305B00DED3487
:10073800814513050004CD34953E81451305F00A23
:10074800E13C31016FF07F9601A0B707EFBE37E7B4
:1007580000E0938707083CC701A0EFF27F943704B5
:1007680000203111930404002AC0AA858840EF10A4
:10077800D012634EA006824503A50423EF10501B38
:10078800634705068D67130704003704008083A4B8
:10079800C77E814681477D140C43024536C83EC654
:1007A8003AC4EF103050B375A40026852EC2EF105E
:1007B800D00E2247B247C2461306D0086355A000A0
:1007C8009245BE86AE8485071107E397C7FC368538
:1007D800EF20600A8D6783A5477FEF10F01E8D67B5
:1007E80083A5877FEF10402151016FF01F8C8D6723
:1007F80003A5077FD5BFEFF2BF8A1301C1FD61468C
:1008080081456800EFF0FF928545414502C002C26C
:1008180002C4EF009070854513050020EF00F06FCB
:100828003165EF00506CC1478A8537150140372480
:1008380001407C8002C4EF00101713050440E92131
:10084800B70702003ECC6C0085471305044023001F
:10085800F10202C602C802CA02CEE1299D46054637
:10086800130504408945352B130504408545C123EC
:10087800130504408545292B1305044085450923A4
:10088800814513050440C123130141026FF0FF8124
:10089800EFF21F81130141FD2AC005652E8413055F
:1008A80005818545B28402C802CA02CC02CE02D0B4
:1008B80002D202D402C202C423160100EF00F0657E
:1008C80085450545EF00706537151A008545130500
:1008D8000580EF00301513070004F88011473ACC63
:1008E8000C080547371501403ACAEF00D00B82477C
:1008F8006082373401404C00130504C07C84231502
:10090800010023130100EF001065C16793870706F4
:100918003ECE6C088947130504C02312F102231147
:100928009102EF00106A130504C08545EF00507965
:10093800130504C0A145EF00907F130504C0854549
:10094800EF0070798545130504C0EF00107213019C
:10095800C1026FF08FF5EFF2AFF4130141FC32845E
:100968002AC01306C0022EC208088145B684EFF0DB
:100978004FFC8545054502C402C6EF0030580245C4
:10098800F929930700083ED2930700101247024541
:100998003ED4930700403ED6930700020C083ED889
:1009A8008D673AC822CA26CE3EDA02CC02D002DCD3
:1009B8008123930760117C84280085473EC6230560
:1009C8000100EF00703F37050240054689452105C3
:1009D800B5231301C1036FF04FEDEFF26FEC130174
:1009E80041FA130600058145680002C002C202C42C
:1009F800EFF02FF485451145EF003052854513057A
:100A08000002EF009051B7140140114489478A85CC
:100A1800138504807C8022C4EF00E0788A851385E2
:100A28000480608022C4EF00007885476800BECC4F
:100A380002DC02DE82C0EF00F03F0545EF001049FE
:100A48001301C1056FF06FE6EFF28FE5E922EF00C1
:100A5800F07193060002414691450545EF00006F8D
:100A6800F1361305401FEF005076EF00103BB53705
:100A7800593337040240B7250140A946138681C877
:100A88009385C54413058400F9358545130584000D
:100A98006129056513060596930540061305052C7F
:100AA800C53B8D6783A4C77F8D6783A5C77D03A5D5
:100AB80041C8EF106071EF10F0562A8685478145CE
:100AC800614795460145EFF0BF9603A541C87131CE
:100AD800A6852A8423A0A1C8EF108065635AA000C8
:100AE800916783A507802285EF10205B634205028A
:100AF8000D660547E1461306467EE1450145EFF0E0
:100B08007F8EEFF0EFF31305401FEF00106C69BF05
:100B1800054791462286E1450145EFF0DF9BD5B7B1
:100B28000945352915C5938781C8138747010145AC
:100B3800962389073695E39DE7FEEF1010618D67D0
:100B480083A5C77DEF10202123A2A1C80945092943
:100B580073002030EFF2CFD48946B727024037140C
:100B6800024094C31C403707FF68C17493E717001D
:100B78001CC05C40FD14F98F5CC01C403707D7FED1
:100B88006D17F98F37071000D98F1CC01C40370725
:100B9800FCFF7D17F98F1CC05C40E58F5CC0B70770
:100BA8009D001CC41C4C93E707021CCCB7170140DE
:100BB8009387074098431377F7F098C398431367D0
:100BC800070898C394CB01275C4037070001B70694
:100BD80000025CC05C40E58F5CC05C405CC01C40AF
:100BE800D98F1CC0B71702409843758F75DFD8435B
:100BF800B7160240719BD8C3D84313672700D8C3E0
:100C08002147DC42B18BE39EE7FEB7270240094744
:100C180098C36FF08FC9371702405C43A146B18B68
:100C28006394D7045C433775DC02130505C0B71617
:100C38000240D842B70700209387472311833D8B92
:100C4800BA979C23D84293F5F70F13770708B35741
:100C5800F50005E3EFF2CFC4EFF04FC637070020E9
:100C68002322A7246FF06FC437356E011305056082
:100C78007DBF370700202322F724828001A0970137
:100C88000020938121DC17110020130121B71735AB
:100C98000000130565D197F5FF1F9385253617F6D4
:100CA800FF1F1306265A63FAC5008322050023A0F6
:100CB800550011059105E3EAC5FE17F5FF1F130559
:100CC8006558938541CA6377B5002320050011054F
:100CD800E36DB5FE896293820288739002308D427B
:100CE8007390428097F2FFFF9382423193E2320081
:100CF80073905230EFF01FE697020000938202D5FE
:100D08007390123473002030B7270140938707404F
:100D18006310F502EFF2CFB8854513050020EF0008
:100D2800B021814513050020EF0010216FF0EFB7C7
:100D380082805841B707F1FF9387F7EF7D8FDC4139
:100D48009441A207D58FD98F5CC11845B7F7F1FF39
:100D58009387D77FD4457D8F9C49D58F9445860648
:100D6800D58FD98F1CC55855B70710FFFD177D8F34
:100D7800DC29FD1793F7F70FD207D98F5CD582804E
:100D88001C4589C593E717001CC58280F99BEDBFF8
:100D98001C4589C593E707101CC5828093F7F7EFB8
:100DA800E5BF0D473387E502032305019D47B39748
:100DB800E70093C7F7FFB3F76700B396E600DD8E49
:100DC80014C9994763E2C70295477D163306F602B0
:100DD8005859FD47B397C70093C7F7FFF98F339664
:100DE800C5005D8E50D98280B14763E2C70295473E
:100DF80065163306F6021859FD47B397C70093C71F
:100E0800F7FFF98F3396C5005D8E10D9828095471C
:100E18004D163306F6025855FD47B397C70093C7DA
:100E2800F7FFF98FB395C500DD8D4CD582801C4541
:100E380091C537071000D98F1CC582803707F0FF8E
:100E48007D17F98FD5BF5C4191C537070004D98F4D
:100E58005CC18280370700FC7D17F98FD5BF1C4124
:100E680041677917F98F1CC123200500232205004B
:100E780023240500B70702402326050013878700AF
:100E88006317E500D8431367F700D8C38280138738
:100E9800C7016316E500D8431367070FFDB713872B
:100EA80007036318E500D8438566938606F0558FD7
:100EB800E9BF138747046315E500D843BD66C5BF7E
:100EC800138787056316E500D843B7060F00C5B733
:100ED8001387C7066316E500D843B706F000C1BFFD
:100EE80013870708E314E5FAD843B706000FC1B71C
:100EF8001841E177BD0794517D8F9C45D58F944962
:100F0800D58FD449D58F944DD58FD44DD58FD45105
:100F1800D58F9455D58FD98F1CC1DC455CC19C41B8
:100F28001CC5DC415CC582801C4189C593E717005C
:100F38001CC1828041677917F98FDDBF1C4101C64A
:100F4800CD8F1CC1828093C5F5FFFD8D0CC18280B9
:100F5800B70702409C437D8D3335A0008280CDBF0A
:100F6800B7070240C8C38280B7270240984B8176F2
:100F78009386F6FD758F98CB984BC166558F98CBA5
:100F8800C8CB984B1367070498CBD847058B75FFD8
:100F9800984BC176FD16758F98CB8280B707674549
:100FA80037270240938737125CC3B797EFCD9387F3
:100FB800B79A5CC38280372702401C4B93E7070827
:100FC8001CCB8280B7270240C847058911E5C8476E
:100FD8004189133515000D058280EFF26F8C2A8444
:100FE800D53785476318F50019E0154529A0D93F7D
:100FF8007D14C5BF7DD86FF04F8BEFF26F8A7111EA
:1010080037050B00D93F91476317F504413FB707F0
:10101800674537240240938737121CC4B797EFCD32
:101028009387B79A1CC41C4801771307F7FDF98FFB
:101038001CC81C4837050B0093E707021CC81C484E
:1010480093E707041CC8513F1C482AC093F7F7FDD3
:101058001CC89537024511016FF02F85B706674503
:10106800B7270240938636123797EFCDD4C31307BC
:10107800B79AD8C3D4D3D8D38280372702401C4B21
:10108800A166D58F1CCB8280B7270240984B81760A
:101098009386F6FD758F98CB984BC166558F98CB84
:1010A800984BB7060800558F98CBD847058B75FF26
:1010B800984BC176FD16758F98CB8280B70700F8DC
:1010C800AA97216763EBE700B71700E093870780CB
:1010D800AA971307F00F636CF702B7270240984BE3
:1010E80081769386F6FD758F98CB984BC166558FA0
:1010F80098CB0CC1984BB7060400558F98CBD847AE
:10110800058B75FF984BC176FD16758F98CB82803D
:10111800EFE21FF9AA84D5359137BD37B70700200C
:10112800014493870780338784000C433305F40018
:1011380011046937B7070020414793870780E314F4
:10114800E4FE3E851535153F6FE03FF6B7270240B0
:10115800DC4F898BB9E7EFE2BFF437070020B3E72C
:10116800A600832647804111CD8F36C2832687800B
:10117800D18F93E727FC36C40327C78093F7F70F6F
:1011880099663AC6938656AA13C7F7FFC20762073D
:10119800B697BA970A853EC0A53F114541016FE051
:1011A800DFF019458280944593F7060113F3F600A2
:1011B80081C7DC413363F30083D2050093F7F20F54
:1011C800A9CF0C41611122C226C081479303800236
:1011D8003D449304800405473317F70033F6E200D3
:1011E8006310C7026397760258C91396270033170E
:1011F800C4001347F7FF6D8F3316C300B365E600CD
:1012080085072147E399E7FC12440CC18244210178
:101218008280E39C96FC18C9C9BF82800CC9828071
:101228004CC9828037030140B70700088326C300F2
:101238001356050113170501E98F3D8A4183BDC780
:10124800B7073000B372F5006394F202370600F96D
:101258007D16B3F7C6008326C300F18E2326D3007C
:1012680095C54581137505073317A700D98F39A888
:10127800B7074000E98F99CF9D47B397C70093C739
:10128800F7FFF58F81C53316C700D18F37070140A7
:101298005CC78280B70720006393F20041069D4730
:1012A800B397C70093C7F7FFF58F5DBFB707100067
:1012B800E98F99C3BD47EDB79357150193F7070712
:1012C800B317F700C5B7EFE2BFDD51118545130528
:1012D800C00302C002C202C48921B7F7FF1F03A7D7
:1012E8004770B7065200938606609377F7F06386D7
:1012F800D70A63E2F60CB706240093860660638279
:10130800D72063E0F604B70622009386066063865A
:10131800D72663EFF600C1779387F7F0F98F370781
:10132800200013070760639BE7009307900F35A819
:1013380037072300130707606389E72031016FE04F
:10134800DFD6B7065000938606606385D71A63E038
:10135800F604C1779387F7F07D8FB707400093872E
:101368000760E39DE7FC9307900E371401407C80EB
:101378008A8593078002130504803EC42D359307A0
:10138800F0077C808A85130504C0313D45BF3707C7
:10139800510013070760E393E7FA930790063714A1
:1013A80001407C808A8593078002130504803EC42F
:1013B800DD3BAD47F9B73707640013070760E386DD
:1013C800E7F66361F7063707620013070760E38CE7
:1013D800E7F86364F7043707530013070760638D62
:1013E800E70C3707610013070760E399E7F49307F1
:1013F8000008371401407C808A8593078002130512
:1014080004803EC44D33930740078A85130504C002
:101418007C80513B9307800CADA03707630013070E
:10142800076081B737177300130707806386E702E1
:10143800636BF70037177000130707806388E704AA
:10144800370771004DB73717740013070780E39704
:10145800E7EE9307000C71BF9307000C37140140A7
:101468007C808A8593078002130504803EC4253B4F
:10147800930740078A85130504C07C802D339307A2
:10148800900C7C808A853715014001B79307000CC2
:10149800371401407C808A859307800213050480F5
:1014A8003EC41133930740078A85130504C07C8026
:1014B800DD399307B00CF1B7930790063714014054
:1014C8007C808A8593078002130504803EC4E13935
:1014D800AD478A85130504C07C80EFF0DFCC930705
:1014E800C0028A85371501407C80EFF0DFCB930777
:1014F800C006B9A09307800C7C80930780023EC485
:1015080051B79307900F371401407C808A85930761
:101518008002130504803EC4EFF0FFC89307F0076C
:101528008A85130504C07C80EFF0FFC79307900EEF
:101538008A85371501407C80EFF0FFC69307D008F5
:101548007C808A851305044089B59307900F37146A
:1015580001407C808A8593078002130504803EC47D
:10156800EFF07FC49307F0078A85130504C07C80D9
:10157800EFF07FC393076002ADB79307900F37145E
:1015880001407C808A8593078002130504803EC44D
:10159800EFF07FC19307F0078A85130504C07C80AC
:1015A800EFF07FC0930700028A85371501407C80E1
:1015B800EFF07FBFB54769B703A7C1C985471421B5
:1015C8006310F7021C31639CE7023C219A0793E7FA
:1015D80007F837E700E093F7F70F36972300F7404F
:1015E800054793D756003317D700544189CE9387C0
:1015F80007048A07B7E600E0B69798C38280EDF340
:101608003C219A07F9B793870706B7E600E08A07EF
:10161800B69798C30F1000008280B7076745374711
:101628000240938737121CCBB797EFCD9387B79AB1
:101638001CCB8280374702401C433706C1F1130692
:1016480026A0F18F10410C595443D18F5041920577
:101658000A06D18F10451206D18F50451606D18F34
:1016680010491E06D18F50492206D18F104D2A06E7
:10167800D18F504D4206D18F10514A06D18F50510B
:101688005206D18F105566065D8E5C558607CD8F44
:10169800B7E5E0FF9385950CED8ED58F5459A206DA
:1016A800D58F145DAE06D58F545DB206D58F344103
:1016B800C206D58F7441C606D58F3445CA06D58F64
:1016C800744510C3D206D58F5CC3828085473747DF
:1016D80002406317F5005C4393E717005CC3828000
:1016E8005C43F99BE5BFB7160240DC423707FF7F32
:1016F8001307F77FF98FC98FDCC2828099C5371726
:1017080002405C4BC98F5CCB8280B7170240D84B34
:101718001345F5FF798DC8CB828099C537170240EC
:101728001C4FC98F1CCF8280B7170240984F1345B2
:10173800F5FF798D88CF828099C5371702405C47BD
:10174800C98F5CC78280B7170240D8471345F5FF99
:10175800798DC8C78280B7370140938707C0630671
:10176800F500B7070040631DF5021E21BA21C20724
:10177800C18393F7F7F8D98FFA2193F7F7CFD98F69
:101788001EA1DE215EB59E211EB5B73701409387A5
:1017980007C06314F5009C251EB985475EA98280A1
:1017A800B717004093870780631CF5001E21BA21F4
:1017B800C207C18393F7F7F8D98F1EA1DE215EA572
:1017C80082801E319A2103D38500C207C183F99B09
:1017D800C207C1831EB11E315221162DC207C18313
:1017E800C206C18293F6C6F8D98EBA21F59B420685
:1017F8003367E300D98F37370140130707C04182A9
:101808006316E502BA25DD9B03D3E500D98FDA21FB
:10181800ED9B1376F6CFD98FDA2533676700598E9B
:10182800FA2152A116AD58D91EB18280370700405F
:10183800E318E5FE03574504060342074183499B25
:10184800420741832312E50483524504DA2183D3F6
:10185800A5000983B3E27200336757003367670056
:10186800420741832312E50465BFB73701409387D8
:1018780007C09DC16306F500B70700406317F50070
:101888001E2193E717001EA139A0B71700409387C0
:101898000780E307F5FE82806306F500B70700407E
:1018A8006319F5001E21C207C183F99BC207C183D2
:1018B800D9BFB717004093870780E31EF5FCDDB753
:1018C8008357450491C52167D98F2312F504828077
:1018D800C607C583DDBFB7370140938707C09DC1E1
:1018E8006306F500B70700406317F5001E2193E76C
:1018F80007081EA139A0B717004093870780E307A0
:10190800F5FE82806306F500B7070040631AF5000C
:101918001E21C207C18393F7F7F7C207C183D1BF5E
:10192800B717004093870780E31DF5FCD5B7B73795
:101938000140938707C06306F500B70700406319A5
:10194800F5001E2DC207C183DD9BDD8D0EAD8280A3
:10195800B7170040938707806319F5005E218D81D2
:10196800C207C183F99BDD8D4EA18280EFE24FF360
:10197800B707002003A54724B7157A0093850520EB
:10198800EFE0CFF31375F50F2381A1CA9307803ECB
:101998003305F5022390A1CA6FE02FF1B7F700E0F5
:1019A800D843799BD8C303C721CA3307A70298CB6A
:1019B80023A4070098431367170098C3D843058BDF
:1019C80075DF9843799B98C38280B7F700E0D843C6
:1019D800799BD8C303D701CA3307A70298CB23A49E
:1019E800070098431367170098C3D843058B75DF22
:1019F8009843799B98C382804111370780007D17EF
:101A080093D6750126C293547501B377A70022C4F3
:101A18006D8F93F4F40F1354F50106C613F5F60F02
:101A2800FD818E070E073386A4406301B404635F0B
:101A3800C00031ED630E07109306F6FF638B062A8C
:101A48009305F00F630AB616368689A861C2330675
:101A580095406399041CFDCB9306F6FF6385062C1D
:101A68001303F00F630866143686E1A2A286635753
:101A7800C01471C19305F00F6380B414B705000456
:101A88004D8FED4563D6C51E8507268689A093062A
:101A9800F00F6383D412B7060004558FED458546D1
:101AA80063CDC50093060002918EB316D700335656
:101AB800C7003337D000B366E600958F37070004B8
:101AC800B3F6E700D5E613F77700268651C313F778
:101AD800F70091466303D7009107370700047D8F0D
:101AE80025CB130516001307F00FA286630EE50633
:101AF800139767001375F50F2583B24022445E05DE
:101B0800598DFE069244558D4101828093861400BA
:101B180093F6E60F63930614D9E86382072075CB22
:101B28003385E740B7060004E98E63820622B307CF
:101B3800F7402E848DA809CF9305F6FF6383051A15
:101B48001305F00F630AA6062E8625BF2E84BA87D2
:101B58001307F00F8D836310E60CC9CF8146130578
:101B6800F00F3707400051BF1305F00F014771B759
:101B78007D17B3F6E700368536C0EF0070698246F8
:101B88006D15B396A60063409506058D930715005D
:101B9800130700021D8F3397E600B3D7F6003337DB
:101BA800E000D98F014613F7770015F33DB7639727
:101BB80007144DD72E84BA878D8345B729C23306BB
:101BC8009540FDE4C9D79305F6FF638C0510130310
:101BD800F00FE30266FE2E86ED4563D5C512930726
:101BE80017002A86EDB5B70700FCFD173386A44019
:101BF800F58F55BFA2861305F00F0147FDBD13866B
:101C080014009375E60FCDEDE5E8638307126313BF
:101C180007128D830146A60713D797001375F60F91
:101C2800A286E1BD9306F00FE306D5F8B7060004D7
:101C3800D58F6D438546634DC30093060002918E90
:101C4800B396D70033D6C700B337D000B366F600D3
:101C5800B307D740AA842E8495B5B386E7403706E4
:101C68000004758E3DEA81FA81460145014771B548
:101C780093050002918DB315B7003357C70033366B
:101C8800B000518FBA97370700047D8FE30D07E244
:101C9800138614001305F00F0147E300A6E6B70604
:101CA800007E13D71700FD16858B758FD98FE5BD7C
:101CB8009305F00FE301B5F0B7050004CD8F29BFF8
:101CC8009305F00FE302B6EA3E979357170093F691
:101CD8007700E39E06DE8D833DBFB306F7402E8472
:101CE80059BDBA97370700047D8F0946854445FBDF
:101CF800D9BB998F8544D9B3E38F07EAE31007E688
:101D08008D83A1BD93050002918DB395B700B3D71C
:101D1800C7003336B000D18FBA97AA84ADB729D798
:101D28002E84BA87FDB5B307F7402E84854479B36E
:101D3800BA87C5B5BA97B7060004FD8E0146C1DE5D
:101D4800370700FC7D17F98F05468D83E9B5AA870B
:101D580001DD8D83C9B51301C1FD9357750126CCEB
:101D68009316950006D022CE93F7F70FAE84A5827E
:101D78001357F501E1C31306F00F6382C70C8E06F3
:101D880037060004D18E138317F80144814293D794
:101D980074019395940093F7F70FA581FD80B5CB57
:101DA8001306F00F6383C70A8E0537060004D18D2A
:101DB800938717F80145BD43334697003303F34033
:101DC80063EE831A97230000938383A30A041E9467
:101DD8001C409E9782879307F00F014782507244F8
:101DE80013957701598D7E06E244518D1301410206
:101DF80082808D476389F2008547639DF20E2A86AB
:101E080081470147E1BF01469307F00F37074000BC
:101E1800F1B7D9E913641400B54733469700E3ECEA
:101E280087FA972500009385A5A10A042E941C40E3
:101E3800AE978287A1EA11440143854289BF95EE96
:101E480021441303F00F894299B795E113642400E4
:101E58007514AD4533469700E3E485FA172500006D
:101E6800130585A10A042A940C40AA958285136457
:101E780034009307F00F0D453DBF31441303F00FB5
:101E88008D4231B736853AC236C0EF007038824687
:101E98009307B5FF1247B396F6009307A0F833836C
:101EA800A74001448142E5B52E851AC836C616C436
:101EB8003AC22EC0EF00D03582459307B5FF1247CE
:101EC800B395F5009307A0F8898FA242B246424322
:101ED8000145D5B5130313F089473A85E39BF2F022
:101EE8002A869307F00F0147D5BD8D47E30DF5F01E
:101EF8002685AE862A869307F307635FF00213F7F9
:101F0800760019C713F7F60091456303B7009106E9
:101F180037070008758F19C7B70700F8FD17FD8E3A
:101F2800930703081307E00FE347F7EA13976600E0
:101F3800258393F7F70F5DB5854599C79D8D6D4549
:101F480081470147E34CB5E81307E3093397E600F7
:101F58003337E000B3D7B600D98F13F7770019C726
:101F680013F7F70091466303D7009107370700047A
:101F78007D8F630D0710854701478DB5C167939421
:101F88005500FD1713D70401E58F3AC03EC263FE22
:101F9800B60A3685BA8532C81AC636C4EFE00F923B
:101FA8009247A24632434246B302F5022A84B687D4
:101FB8007D13814682453E8532CA36C816C61AC484
:101FC800EFE08F92C246B24293170501D58F2243A4
:101FD800524663F85700A6979306F4FF63F3970AEF
:101FE80036848245B38757403E8532CA1AC83EC6F2
:101FF800EFE0CF8C924782452AC4B303F502B2477B
:102008003E851EC2EFE04F8E924393160501A24211
:102018004243524663F17602B3879600B3B5D700C0
:102028001385F2FFBE8699E563F67700F912B38649
:10203800970011A0AA8213170401B386764033676C
:102048005700B336D000D98E7DB5824593D7160098
:102058003E8532CA1AC836C63EC4EFE02F86B2465D
:1020680092475246FE06B302F5024243A2472A842B
:10207800C18289B726852A8661B3014637074000A1
:10208800B1BBE3FF57F47914A697A1BF9A0713D7FA
:1020980097008147A1B32685A1B513567501370767
:1020A80080007D1793D675011376F60F1303F00F92
:1020B800B372A7009357F5016D8F13F5F60FFD81E5
:1020C80063056602630A650005EA09E939C3639E88
:1020D8000204A1C92E85828039E719E2E38B02FE4A
:1020E8006399B7009DCF3E858280639E0202630597
:1020F800C50205459DE782806DDDE39CB7FEE34A96
:10210800C5FEE341A6FEE36657FE0145E3ECE2FCAB
:102118008280E39002FE828019E7E39CB7FC0145C8
:1021280082807D55828079558280E38EB7FCD1B755
:1021380013567501370780007D1793D675011376FE
:10214800F60F1303F00FB372A7009357F5016D8FC5
:1021580013F5F60FFD8163066602630A650005EE56
:1021680011E929CB639F0204B9C92E8582800945EC
:1021780001EB19E2E38A02FE638BB7020545A1E38E
:102188008280639C0202E31BC5FE094575FBE39749
:10219800B7FE014582807DD1E392B7FEE340C5FEDC
:1021A8006347A600E36C57FC0145E3FBE2FC81CBE7
:1021B8003E858280E39402FC8280094582807D55B9
:1021C8008280E381B7FE5DBF011126CA9354750171
:1021D8001316950006CE22CC93F4F40F258293565D
:1021E800F501638704109307F00F6388F4100E0657
:1021F800B70700045D8E938414F80147814293D792
:1022080075011394950093F7F70F2580FD81E9C7B1
:102218001305F00F638FA704938717F83705000499
:102228000E04498C3385970093041500294326C072
:102238008147634CE30E33C3B60089469A8363C96A
:10224800E6047D17854563E7E514638ED70A0547DD
:102258001E836391E70681478143F24062441395E8
:102268007701336575007E03D244336565000561E7
:1022780082801385F40F49CC9384041033C3B600CD
:1022880026C013673700A9449A8363C4E4208D47A6
:1022980085463397E6009376075399CE894763843A
:1022A800F2068D476384F2029687054732841E83BF
:1022B800E383E7FA024591A29376072481EA13772C
:1022C800870869CBAE832286BE82C9BF01439307C4
:1022D800F00FB703400051B751E02685930415006D
:1022E80013671700294326C08547E356E3F435A84A
:1022F80021E611478144854219B715EA214793041D
:10230800F00F8942EDBD1E839307F00F8143B1B7EB
:10231800938704103EC0136727002943B9438947B0
:10232800E35BE3F02D47E38FE3F8B68385BF3147DE
:102338009304F00F8D42E1B532852EC436C232C007
:10234800C12D02469307B5FF9304A0F89246A24513
:102358003316F600898C0147814255B5228532C86B
:1023680016C63AC42EC236C065259307B5FF338515
:10237800A4401305A5F82247930415008246294373
:1023880026C03314F4009245B24242468147E354D2
:10239800E3EA61BFC1631387F3FF935606019352C3
:1023A8000401798E618FB305C7023387E60293D79C
:1023B80005013386C2023A96B297B386560263F392
:1023C800E7009E9641667D1633F7C700F18D4207F8
:1023D8002E971316670013D407016983B337C0001B
:1023E8003694D98F1A045D8CB7070008E18F91C71E
:1023F80002459357140005885D8C9307F5076350D1
:10240800F0041377740019C71377F4009146630337
:10241800D700110437070008618F19C7B70700F8FC
:10242800FD177D8C930705081307E00F634AF7042F
:102438009313640093D3930093F7F70F39BD0547BF
:1024480099C71D8FED4681478143E3C8E6E0130530
:10245800E5093315A400B357E4003337A000D98F3A
:1024680013F7770019C713F7F70091466303D700EE
:102478009107370700047D8F01CB85478143F1BB66
:102488009307F00F8143D1BB9A0793D397008147F5
:10249800E9B33D450143B7034000E300A7DCAD4382
:1024A8008D4749B537078000411193D675017D17CF
:1024B800B377A70022C46D8F1354F50126C206C650
:1024C800935475011303F00F13F5F60F93F4F40FFB
:1024D800A2868E07FD81131637006303650493C532
:1024E80015003387A440630FB4006356E03035E12C
:1024F800630C06149306F7FF638E0628630F6702C2
:102508003687A9A86355E0306DC963886402B705AA
:1025180000044D8EED4563DFE512850726878DA8FB
:10252800138714F045E693C515006301B40E630ADA
:102538000718638604102E84B2878D83937614005F
:102548001305F00FBDCB81461305F00FB707400008
:10255800ADA0E38464FEB7060004558EED458546BC
:1025680063CDE50093060002998EB316D600335664
:10257800E6003337D000B366E600958F37070004CE
:10258800B3F6E7006391061093F677002687CDCE61
:1025980093F6F70011466383C6009107B706000457
:1025A800FD8EDDC205071306F00F9376140063084D
:1025B800C70C9A071375F70FA583B24022445E052E
:1025C8005D8DFE069244558D41018280E311B4F67B
:1025D80031C3639F041A1307F00FB5C79305F7FFBC
:1025E800638705121303F00F6304671A6D47635975
:1025F800B71A930716002A8761BF39C69305F7FFF4
:1026080063870510E30B67F22E8729B701C7E1D46A
:10261800814725B7138714009375E70F6394051452
:10262800639704166385071A6315061A8D83014795
:10263800A607A5831375F70F93761400BDBF13077C
:10264800F00FFDE72E84B2879306F00F8D83E30722
:10265800D7EEF9BF93050002998DB315B600B335CF
:10266800B0003356E6004D8EB297370700047D8FD1
:1026780001DF138714001306F00F6312C70A13054E
:10268800F00F81471DBF7D177D8F3A853AC04926D7
:1026980002476D15B316A70063499504058D930786
:1026A8001500130700021D8F3397E6003337E0004B
:1026B800B3D7F600D98F014793F67700E39A06EC73
:1026C800F1BD138714001377E70F1DE7CDE8E5CFB9
:1026D80031DE3387C740B7060004F98E63880610D9
:1026E800B307F64001472E84C1BFB70700FCFD17AA
:1026F8003387A440F58FC9B73387C740B7060004AE
:10270800F98ED1E259F38146014581477DB5B297EB
:10271800B7060004FD8E09478544E38706E63706B9
:10272800007E93D617007D16858BF18ED58F69B7FD
:102738009306F7FFC1C61303F00F2E84630A6704DC
:10274800ED45054763CCD50013070002158F339775
:10275800E700B3D6D7003337E000558FB307E6401C
:10276800AA8429BD9305F00FE30BB7F03E96935763
:10277800160093F67700E39D06E08D8355BD91EF33
:10278800E30306DC4DBB3307F6402E84FDBD91E71D
:10279800B28765B3918F8544D5B3E30006DA65B394
:1027A800130700020D8F3397E700B3D5B700B3378F
:1027B800E000DD8DB387C500AA8445BDB307F640A8
:1027C8002E84854465BB21D22E84B28785B5B28715
:1027D800B1BDB297B7060004FD8E0147D9DE3707B1
:1027E80000FC7D17F98F8D83054799B509DFBA87F6
:1027F8008D83014735BDE30607ECB3069540368760
:10280800E38104E437070004D98F2E8415BFE3035E
:1028180007E0B305954099E02E87C1B33707000458
:10282800D98FE9B313577501370680009307F6FF70
:102838001377F70F9305E007B3F6A7009357F50151
:10284800014563D3E50091C382809307E0097D5574
:10285800E3CCE7FE93055009B3E7C60063D7E5006C
:102868001305A7F63395A700828013056009198D13
:1028780033D5A7008280511106C422C226C021C1C7
:102888001357F541B344A700998CAA87268513D41A
:10289800F701BD2AAA861305E009B307D540130737
:1028A8006009634BF7022147638BE608138586FFAF
:1028B8003397A4002607258313F5F70F21A00144B9
:1028C80001450147A2409317F40112445E05598D52
:1028D80082445D8D31018280130790096344F704B7
:1028E80015471386B6FF6384E600B394C400370621
:1028F80000FC7D1693F5740033F7C40099CDBD88AC
:102908009145638CB4001107B7050004F98D91C592
:102918001305F009718FB307D5401A07258313F5FE
:10292800F70F4DB71387B60115463397E400158E98
:1029380033D6C4003337E000B364E6004DBF1397C5
:102948009400258313056009B5BF21C1511122C226
:1029580006C42A847528AA861305E009B307D5405A
:10296800130760096348F7022147638DE60813855A
:1029780086FF3317A4002607258313F5F70FA24017
:1029880012445E05598D31018280014501475E057B
:10299800598D8280130790096349F70415471386F8
:1029A800B6FF6384E6003314C400370600FC7D16C6
:1029B800937574003377C40099CD3D889145630CB5
:1029C800B4001107B7050004F98D91C51305F00986
:1029D800718FB307D540A24012441A0713F5F70FB9
:1029E80025835E05598D310182801386B60115470E
:1029F8003316C400158F3336C0003357E4003364F0
:102A0800E60065B71317940025831305600985BF91
:102A1800C1676375F5029337051093C717008E07D2
:102A2800130700021D8F3355F50097170000938791
:102A3800A7E7AA9788233305A7408280B707000134
:102A4800637FF500C1473355F5009717000093875A
:102A5800A7E5AA97882341473305A7408280E14725
:102A68003355F50097170000938707E4AA97882342
:102A780021473305A74082800000000000000000C5
:102A8800000000000000000000000000000000003E
:102A9800000000000000000000000000000000002E
:102AA80000F0F0F0000000000000000000017F01CD
:102AB8000000000000000000001C1C1C00000000BA
:102AC80000008060301C8C60301C0C00000000008E
:102AD80000000000000000000000000000000000EE
:102AE80000000000000000E00000000000E000001E
:102AF8000086E69F86868686E69F860000011F017F
:102B0800010101011F010100000080C06020F820C0
:102B1800E0C00000000003070C18FF70E18100000E
:102B28000000070F10107F100F0700008060206062
:102B380080000000E02000000F3020309F70DC375C
:102B48001030C0000000100E03000718101807000E
:102B58000000C02020E0C0000000000080E01F3816
:102B6800E88703C43C040000070F1810100B070D7A
:102B78001010080000808C4C380000000000000095
:102B8800000000000000000000000000000000003D
:102B9800000000000000000000000000000080E0CD
:102BA800300804000000000000FEFF0100000000E3
:102BB800000000000000030F182040000004083047
:102BC800E0800000000000000000000001FFFE009F
:102BD80000000000004020180F0300000000000063
:102BE800000000000000C00000000000004266660F
:102BF8003C18FF183C666642000000000000030015
:102C0800000000000000000000008000000000003C
:102C1800001010101010FF1010101010000000000D
:102C28000000030000000000000000000000000099
:102C3800000000000000000000000000000000008C
:102C480000808C4C380000000000000000000000EC
:102C580000000000000000000010101010101010FC
:102C6800101010000000000000000000000000002C
:102C7800000000000000000000000000000000004C
:102C8800000000000000000000001C1C1C000000E8
:102C9800000000000000000000000000E0380C0008
:102CA8000000000080701C03000000000060380E67
:102CB8000100000000000000000080C060202060CB
:102CC800C080000000FEFF010000000001FFFE00C0
:102CD8000001070E181010180E0701000000808070
:102CE80080C0E000000000000000000000FFFF00BE
:102CF8000000000000001010101F1F10101000002E
:102D08000080402020202060C080000000030300D5
:102D1800804020381F070000001C1A1918181818BE
:102D2800181F00000080C020202060C08000000024
:102D3800000303001010182FE780000000070F1091
:102D4800101010180F070000000000000000C0E07D
:102D5800F000000000C0B088868180FFFF808000FE
:102D6800000000000010101F1F1010000000E0609D
:102D7800606060606060000000003F10080808188C
:102D8800F0E0000000070B101010101C0F030000EB
:102D9800000080C040202020E0C0000000FCFF218F
:102DA8001008080818F0E0000001070C18101010AF
:102DB800080F03000000C0E06060606060E0600031
:102DC800000003000000E0180700000000000000F9
:102DD800001F1F00000000000080C060202020208D
:102DE80060C080000087EF2C1818303068CF83004F
:102DF80000070F0810101010180F07000000C0C0BF
:102E080020202020C0800000001F3F60404040205C
:102E180010FFFE0000000C1C101010080F0300002B
:102E2800000000000000000000000000000000009A
:102E3800000E0E0E0000000000000000001C1C1C0C
:102E4800000000000000000000000000000000007A
:102E580000000000000C0C00000000000000000052
:102E6800005838000000000000000000000000804A
:102E780040201000000010284482010000000000DB
:102E8800000000000000010204081000000000001B
:102E9800000000000000000000848484848484848E
:102EA800848484000000000000000000000000008E
:102EB800000010204080000000000000000000001A
:102EC80000000182442810000000100804020100DC
:102ED8000000000000C020201010101030E0C000DA
:102EE8000003030000F010080C07030000000000B6
:102EF8001C1C1C0000000000000000C040602020D6
:102F08002040C00000FCFF01F00E03C1FE03807FDB
:102F18000001070E08111110110904020000000039
:102F280080E0E000000000000000807C4340477F14
:102F3800F880000010181F1000000000131F1C105C
:102F480020E0E02020202060C080000000FFFF106B
:102F5800101010182FE78000101F1F1010101010ED
:102F6800180F0700000080C0402020202060E000EB
:102F780000FCFF0100000000000001000001070E36
:102F8800181010100804030020E0E0202020204042
:102F9800C080000000FFFF000000000001FFFE00ED
:102FA800101F1F10101018080E07010020E0E02065
:102FB800202020202060800000FFFF101010107CCF
:102FC80000000000101F1F1010101010101806002D
:102FD80020E0E020202020206060800000FFFF101B
:102FE8001010107C00000100101F1F1000000000CE
:102FF80000000000000080C06020202040E00000A9
:1030080000FCFF0100004040C0C140400001070E25
:10301800181010100F0F000020E0E0200000000042
:1030280020E0E02000FFFF101010101010FFFF003C
:10303800101F1F1000000000101F1F10000020208C
:1030480020E0E020202000000000000000FFFF003A
:103058000000000000001010101F1F1010100000CA
:1030680000000000202020E0E020202000000000D8
:10307800000000FFFF0000000060E0808080C07F4B
:103088003F00000020E0E020000020A06020200099
:1030980000FFFF30187CE3C000000000101F1F1065
:1030A800000001131F1C181020E0E02000000000A1
:1030B8000000000000FFFF0000000000000000000A
:1030C800101F1F10101010101018060020E0E0E06C
:1030D80000000000E0E0E02000FF013FFEC0E01E2D
:1030E80001FFFF00101F1000031F0300101F1F1017
:1030F80020E0E0C0000000000020E02000FF000306
:10310800071C78E08000FF00101F1000000000007E
:10311800030F1F00000080C060202060C0800000F6
:1031280000FEFF010000000000FFFE000001070E86
:10313800181010180C07010020E0E02020202020A3
:1031480060C0800000FFFF2020202020301F0F00DB
:10315800101F1F100000000000000000000080C0C9
:1031680060202060C080000000FEFF010000000019
:1031780000FFFE000001070E1111133C7C672100BF
:1031880020E0E0202020202060C0800000FFFF1009
:103198001030F0D0080F0700101F1F1000000003A8
:1031A8000F1C10100080C060202020204040E0004C
:1031B80000070F0C1818303060E08100001F0C0861
:1031C80010101010180F07008060202020E0E02069
:1031D800202060800100000000FFFF0000000001C7
:1031E80000000000101F1F100000000020E0E02079
:1031F800000000000020E02000FFFF0000000000A9
:103208000000FF0000070F1810101010100807002A
:103218002060E0E02000000020E060200000077F40
:10322800F88000807C03000000000000071F1C07D6
:103238000000000020E0E02000E0E0200020E02086
:103248000007FFF8E01FFFFCE01F00000000031F5D
:103258000300011F03000000002060E0A000002020
:10326800E0602000000000038F7CF8C60100000029
:103278000010181E130001171F1810002060E0E04E
:103288002000000020E06020000001073EF8E01860
:103298000700000000000010101F1F1010000000A1
:1032A80000806020202020A0E0E020000000000036
:1032B800C0F03E0F0300000000101C1F1710101074
:1032C800101806000000000000FC040404040400B8
:1032D8000000000000FF00000000000000000000E7
:1032E800007F404040404000000010E00000000027
:1032F8000000000000000000031C608000000000C7
:1033080000000000000000030C70800000000404AE
:10331800040404FC0000000000000000000000FF9E
:1033280000000000000040404040407F00000000D6
:1033380000000010080C040C081000000000000039
:103348000000000000000000000000000000000075
:103358000000000000000000000000000000000065
:103368000000000000000000000000008080808055
:10337800808080808080808000000004040808002D
:103388000000000000000000000000000000000035
:103398000000000000000000000000000000000025
:1033A8000000000000000000000098D844642424B5
:1033B800FCF80000000F1F18101010081F1F10182D
:1033C8000020E0F000000000000000000000FFFF07
:1033D800180804040CF8F00000001F0F1810101053
:1033E800180F0300000000000000000000000000AB
:1033F80000E0F8180404043C3800000000030F0C37
:103408001010101008060000000000000000002046
:10341800E0F0000000E0F81C04040408FFFF0000CE
:1034280000030F18101010081F0F080000000000FC
:1034380000000000000000000000E0F84844444498
:103448004C7870000000030F0C18101010080400CE
:103458000000000080C0602020E0C00000040404D8
:10346800FFFF040404040000000010101F1F1010C8
:103478001000000000000000000000000000000034
:10348800000070F88C04048CF874040C007076CF7B
:103498008D8D8D89C87870000020E0F00000000054
:1034A800000000000000FFFF08040404FCF800000E
:1034B80000101F1F100000101F1F10000000000048
:1034C80000606000000000000000040404FCFC0030
:1034D8000000000000001010101F1F101010000046
:1034E8000000000000000060600000000000000014
:1034F800040404FCFC0000000000C0C08080C07F01
:103508003F0000000020E0F0000000000000000084
:103518000000FFFF80C0F41C0404000000101F1FFF
:103528001100031F1C1010000000202020E0F000F4
:10353800000000000000000000FFFF000000000085
:1035480000001010101F1F101010000000000000D5
:10355800000000000000000004FCFC0804FCFC085B
:1035680004FCFC00101F1F10001F1F10001F1F105D
:103578000000000000000000000000000004FCFC47
:1035880008080404FCF8000000101F1F10000010B9
:103598001F1F1000000000000000000000000000D5
:1035A80000E0F0180C04040C18F0E00000030F0C05
:1035B800101010100C0F03000000000000000000A5
:1035C800000000000004FCFC080404040CF8F000EF
:1035D8000080FFFF889010101C0F030000000000FF
:1035E800000000000000000000E0F81C04040408CB
:1035F800F8FC000000030F1810109088FFFF8000EF
:10360800000000000000000000000000040404FCAA
:10361800FC100804040C0C001010101F1F101010D0
:103628000000000000000000000000000000000092
:1036380000003078CCC48484840C1C0000001E1860
:1036480010101011190F06000000000000C0000043
:103658000000000000040404FFFF0404040000004C
:10366800000000000F1F1010100C000000000000E8
:1036780000000000000000000004FCFE0000000440
:10368800FCFE000000000F1F181010081F0F080094
:1036980000000000000000000000000000040C3CD6
:1036A800FCC40000C43C0C0400000000010F1E0E06
:1036B8000100000000000000000000000000000001
:1036C800043CFCC400E47CFC84807C040000071FEC
:1036D800070000071F0700000000000000000000AE
:1036E800000000000004041C7CE4C0341C04040036
:1036F8000010101C1601131F1C18100000000000F9
:10370800000000000000000000040C3CFCC400C4E1
:103718003C0404000000C080C1370E010000000016
:1037280000000000000000000000000000001C0471
:1037380004C4F47C1C0400000000101C1F171110A6
:1037480010180E0000000000000000F80C04000033
:1037580000000000001028EF00000000000000003A
:103768000000003F60400000000000000000FF0073
:1037780000000000000000000000FF000000000042
:10378800000000000000FF00000000000000040C22
:10379800F80000000000000000000000EF28100002
:1037A80000000000000040603F0000000000000032
:1037B800001806020204081020203008000000004B
:1037C80000000000000000000000000000000000F1
:1037D80000000000000020410000C842204E4120A7
:1037E800000000000000807F000080BFCDCCCC3DF1
:1037F8000000F041000000420000284280E7FFFF7F
:10380800DAE5FFFF04E6FFFFEEE6FFFF04E6FFFF51
:103818000AE6FFFF04E6FFFFEEE6FFFFDAE5FFFF3B
:10382800DAE5FFFF0AE6FFFFEEE6FFFFDCE6FFFF53
:10383800DCE6FFFFDCE6FFFF0AE6FFFF9AE5FFFF95
:103848009AE5FFFFC4E5FFFF38E8FFFFC4E5FFFF87
:10385800CAE5FFFFC4E5FFFF38E8FFFF9AE5FFFF71
:103868009AE5FFFFCAE5FFFF38E8FFFF9CE6FFFF88
:103878009CE6FFFF22E8FFFF8CE5FFFF06E8FFFF5D
:103888008CE5FFFF22E8FFFF62E5FFFF62E5FFFF2F
:1038980006E8FFFF22E8FFFF60E6FFFF60E6FFFFA4
:1038A80060E6FFFF000102020303030304040404AB
:1038B80004040404050505050505050505050505B4
:1038C8000505050506060606060606060606060694
:1038D8000606060606060606060606060606060680
:1038E8000606060607070707070707070707070764
:1038F8000707070707070707070707070707070750
:10390800070707070707070707070707070707073F
:10391800070707070707070707070707070707072F
:103928000707070708080808080808080808080813
:1039380008080808080808080808080808080808FF
:1039480008080808080808080808080808080808EF
:1039580008080808080808080808080808080808DF
:1039680008080808080808080808080808080808CF
:1039780008080808080808080808080808080808BF
:1039880008080808080808080808080808080808AF
:10399800080808080808080808080808080808089F
:0439A80008080808FB
:1039AC0000001E4333B33943666655439A1971437D
:1039BC0066668643004094439A19A24333F3AF439F
:1039CC00CDCCBD4366A6CB430080D9439A59E7437F
:1039DC003333F543668601443373084400600F4467
:1039EC00CD4C16449A391D446626244433132B447B
:1039FC000000324466E63844CDCC3F4433B34644F1
:103A0C009A994D440080544466665B44CD4C6244A4
:103A1C00333369449A1970440000774466E67D4458
:103A2C00666682449AD98544CD4C894400C08C4446
:103A3C003333904466A693449A199744CD8C9A4498
:103A4C0000009E440070A14400E0A4440050A8442F
:103A5C0000C0AB440030AF4400A0B2440010B644E8
:103A6C000080B94400F0BC440060C044CDCCC344D9
:103A7C009A39C74466A6CA443313CE440080D14455
:103A8C00CDECD4449A59D84466C6DB443333DF4476
:103A9C0000A0E2449A09E6443373E944CDDCEC44DB
:103AAC006646F04400B0F3449A19F7443383FA4461
:103ABC00CDECFD4433AB0045006002459A11044542
:103ACC0033C30545CD7407456626094500D80A451C
:103ADC009A890C45333B0E45CDEC0F45669E11453E
:103AEC000050134566FE1445CDAC1645335B1845A6
:103AFC009A091A4500B81B4566661D45CD141F452D
:103B0C0033C320459A7122450020244533CB2545EB
:103B1C00667627459A212945CDCC2A4500782C4537
:103B2C0033232E4566CE2F459A793145CD24334526
:103B3C0000D03445007836450020384500C839455A
:103B4C0000703B4500183D4500C03E4500684045AF
:103B5C000010424500B8434500604545CD0447453B
:103B6C009AA94845664E4A4533F34B4500984D4556
:103B7C00CD3C4F459AE1504566865245332B544512
:103B8C0000D05545007057450010594500B05A45B6
:103B9C0000505C4500F05D4500905F45003061458C
:103BAC0000D062450070644500106645CDAC674599
:103BBC009A49694566E66A4533836C4500206E4533
:103BCC00CDBC6F459A59714566F672453393744571
:103BDC0000307645010203040506070801020304C0
:083BEC0005060708006CDC026D
:00000001FF
